{
  "_format": "hh-sol-artifact-1",
  "contractName": "CarbonToken",
  "sourceName": "contracts/CarbonToken.sol",
  "abi": [
    {
      "inputs": [
        {
          "internalType": "string",
          "name": "name",
          "type": "string"
        },
        {
          "internalType": "string",
          "name": "symbol",
          "type": "string"
        },
        {
          "internalType": "string",
          "name": "_projectName",
          "type": "string"
        },
        {
          "internalType": "string",
          "name": "_projectType",
          "type": "string"
        },
        {
          "internalType": "string",
          "name": "_country",
          "type": "string"
        },
        {
          "internalType": "string",
          "name": "_evidenceURI",
          "type": "string"
        },
        {
          "internalType": "address",
          "name": "issuerAddress",
          "type": "address"
        },
        {
          "internalType": "uint256",
          "name": "_pricePerToken",
          "type": "uint256"
        },
        {
          "internalType": "uint256",
          "name": "initialSupply",
          "type": "uint256"
        }
      ],
      "stateMutability": "nonpayable",
      "type": "constructor"
    },
    {
      "inputs": [
        {
          "internalType": "address",
          "name": "spender",
          "type": "address"
        },
        {
          "internalType": "uint256",
          "name": "allowance",
          "type": "uint256"
        },
        {
          "internalType": "uint256",
          "name": "needed",
          "type": "uint256"
        }
      ],
      "name": "ERC20InsufficientAllowance",
      "type": "error"
    },
    {
      "inputs": [
        {
          "internalType": "address",
          "name": "sender",
          "type": "address"
        },
        {
          "internalType": "uint256",
          "name": "balance",
          "type": "uint256"
        },
        {
          "internalType": "uint256",
          "name": "needed",
          "type": "uint256"
        }
      ],
      "name": "ERC20InsufficientBalance",
      "type": "error"
    },
    {
      "inputs": [
        {
          "internalType": "address",
          "name": "approver",
          "type": "address"
        }
      ],
      "name": "ERC20InvalidApprover",
      "type": "error"
    },
    {
      "inputs": [
        {
          "internalType": "address",
          "name": "receiver",
          "type": "address"
        }
      ],
      "name": "ERC20InvalidReceiver",
      "type": "error"
    },
    {
      "inputs": [
        {
          "internalType": "address",
          "name": "sender",
          "type": "address"
        }
      ],
      "name": "ERC20InvalidSender",
      "type": "error"
    },
    {
      "inputs": [
        {
          "internalType": "address",
          "name": "spender",
          "type": "address"
        }
      ],
      "name": "ERC20InvalidSpender",
      "type": "error"
    },
    {
      "inputs": [],
      "name": "ReentrancyGuardReentrantCall",
      "type": "error"
    },
    {
      "anonymous": false,
      "inputs": [
        {
          "indexed": true,
          "internalType": "address",
          "name": "owner",
          "type": "address"
        },
        {
          "indexed": true,
          "internalType": "address",
          "name": "spender",
          "type": "address"
        },
        {
          "indexed": false,
          "internalType": "uint256",
          "name": "value",
          "type": "uint256"
        }
      ],
      "name": "Approval",
      "type": "event"
    },
    {
      "anonymous": false,
      "inputs": [
        {
          "indexed": false,
          "internalType": "string",
          "name": "newURI",
          "type": "string"
        },
        {
          "indexed": false,
          "internalType": "uint256",
          "name": "timestamp",
          "type": "uint256"
        }
      ],
      "name": "EvidenceUpdated",
      "type": "event"
    },
    {
      "anonymous": false,
      "inputs": [
        {
          "indexed": false,
          "internalType": "uint256",
          "name": "newPrice",
          "type": "uint256"
        }
      ],
      "name": "PriceUpdated",
      "type": "event"
    },
    {
      "anonymous": false,
      "inputs": [
        {
          "indexed": true,
          "internalType": "address",
          "name": "by",
          "type": "address"
        },
        {
          "indexed": false,
          "internalType": "uint256",
          "name": "amount",
          "type": "uint256"
        },
        {
          "indexed": false,
          "internalType": "uint256",
          "name": "timestamp",
          "type": "uint256"
        }
      ],
      "name": "TokensRetired",
      "type": "event"
    },
    {
      "anonymous": false,
      "inputs": [
        {
          "indexed": true,
          "internalType": "address",
          "name": "from",
          "type": "address"
        },
        {
          "indexed": true,
          "internalType": "address",
          "name": "to",
          "type": "address"
        },
        {
          "indexed": false,
          "internalType": "uint256",
          "name": "value",
          "type": "uint256"
        }
      ],
      "name": "Transfer",
      "type": "event"
    },
    {
      "inputs": [
        {
          "internalType": "address",
          "name": "owner",
          "type": "address"
        },
        {
          "internalType": "address",
          "name": "spender",
          "type": "address"
        }
      ],
      "name": "allowance",
      "outputs": [
        {
          "internalType": "uint256",
          "name": "",
          "type": "uint256"
        }
      ],
      "stateMutability": "view",
      "type": "function"
    },
    {
      "inputs": [
        {
          "internalType": "address",
          "name": "spender",
          "type": "address"
        },
        {
          "internalType": "uint256",
          "name": "value",
          "type": "uint256"
        }
      ],
      "name": "approve",
      "outputs": [
        {
          "internalType": "bool",
          "name": "",
          "type": "bool"
        }
      ],
      "stateMutability": "nonpayable",
      "type": "function"
    },
    {
      "inputs": [
        {
          "internalType": "address",
          "name": "account",
          "type": "address"
        }
      ],
      "name": "balanceOf",
      "outputs": [
        {
          "internalType": "uint256",
          "name": "",
          "type": "uint256"
        }
      ],
      "stateMutability": "view",
      "type": "function"
    },
    {
      "inputs": [],
      "name": "country",
      "outputs": [
        {
          "internalType": "string",
          "name": "",
          "type": "string"
        }
      ],
      "stateMutability": "view",
      "type": "function"
    },
    {
      "inputs": [],
      "name": "decimals",
      "outputs": [
        {
          "internalType": "uint8",
          "name": "",
          "type": "uint8"
        }
      ],
      "stateMutability": "view",
      "type": "function"
    },
    {
      "inputs": [],
      "name": "evidenceURI",
      "outputs": [
        {
          "internalType": "string",
          "name": "",
          "type": "string"
        }
      ],
      "stateMutability": "view",
      "type": "function"
    },
    {
      "inputs": [],
      "name": "isVerified",
      "outputs": [
        {
          "internalType": "bool",
          "name": "",
          "type": "bool"
        }
      ],
      "stateMutability": "view",
      "type": "function"
    },
    {
      "inputs": [],
      "name": "issuer",
      "outputs": [
        {
          "internalType": "address",
          "name": "",
          "type": "address"
        }
      ],
      "stateMutability": "view",
      "type": "function"
    },
    {
      "inputs": [
        {
          "internalType": "uint256",
          "name": "amount",
          "type": "uint256"
        }
      ],
      "name": "mint",
      "outputs": [],
      "stateMutability": "nonpayable",
      "type": "function"
    },
    {
      "inputs": [],
      "name": "name",
      "outputs": [
        {
          "internalType": "string",
          "name": "",
          "type": "string"
        }
      ],
      "stateMutability": "view",
      "type": "function"
    },
    {
      "inputs": [],
      "name": "pricePerToken",
      "outputs": [
        {
          "internalType": "uint256",
          "name": "",
          "type": "uint256"
        }
      ],
      "stateMutability": "view",
      "type": "function"
    },
    {
      "inputs": [],
      "name": "projectName",
      "outputs": [
        {
          "internalType": "string",
          "name": "",
          "type": "string"
        }
      ],
      "stateMutability": "view",
      "type": "function"
    },
    {
      "inputs": [],
      "name": "projectType",
      "outputs": [
        {
          "internalType": "string",
          "name": "",
          "type": "string"
        }
      ],
      "stateMutability": "view",
      "type": "function"
    },
    {
      "inputs": [
        {
          "internalType": "uint256",
          "name": "amount",
          "type": "uint256"
        }
      ],
      "name": "retire",
      "outputs": [],
      "stateMutability": "nonpayable",
      "type": "function"
    },
    {
      "inputs": [],
      "name": "symbol",
      "outputs": [
        {
          "internalType": "string",
          "name": "",
          "type": "string"
        }
      ],
      "stateMutability": "view",
      "type": "function"
    },
    {
      "inputs": [],
      "name": "totalRetired",
      "outputs": [
        {
          "internalType": "uint256",
          "name": "",
          "type": "uint256"
        }
      ],
      "stateMutability": "view",
      "type": "function"
    },
    {
      "inputs": [],
      "name": "totalSupply",
      "outputs": [
        {
          "internalType": "uint256",
          "name": "",
          "type": "uint256"
        }
      ],
      "stateMutability": "view",
      "type": "function"
    },
    {
      "inputs": [
        {
          "internalType": "address",
          "name": "to",
          "type": "address"
        },
        {
          "internalType": "uint256",
          "name": "value",
          "type": "uint256"
        }
      ],
      "name": "transfer",
      "outputs": [
        {
          "internalType": "bool",
          "name": "",
          "type": "bool"
        }
      ],
      "stateMutability": "nonpayable",
      "type": "function"
    },
    {
      "inputs": [
        {
          "internalType": "address",
          "name": "from",
          "type": "address"
        },
        {
          "internalType": "address",
          "name": "to",
          "type": "address"
        },
        {
          "internalType": "uint256",
          "name": "value",
          "type": "uint256"
        }
      ],
      "name": "transferFrom",
      "outputs": [
        {
          "internalType": "bool",
          "name": "",
          "type": "bool"
        }
      ],
      "stateMutability": "nonpayable",
      "type": "function"
    },
    {
      "inputs": [
        {
          "internalType": "string",
          "name": "newURI",
          "type": "string"
        }
      ],
      "name": "updateEvidenceURI",
      "outputs": [],
      "stateMutability": "nonpayable",
      "type": "function"
    },
    {
      "inputs": [
        {
          "internalType": "uint256",
          "name": "newPrice",
          "type": "uint256"
        }
      ],
      "name": "updatePrice",
      "outputs": [],
      "stateMutability": "nonpayable",
      "type": "function"
    },
    {
      "inputs": [],
      "name": "withdraw",
      "outputs": [],
      "stateMutability": "nonpayable",
      "type": "function"
    },
    {
      "stateMutability": "payable",
      "type": "receive"
    }
  ],
  "bytecode": "0x6040608081523462000b825762001e60803803806200001e8162000b87565b9283398101906101208183031262000b825780516001600160401b03811162000b8257826200004f91830162000bad565b60208201519091906001600160401b03811162000b8257836200007491830162000bad565b818501519093906001600160401b03811162000b8257816200009891840162000bad565b60608301519091906001600160401b03811162000b825781620000bd91850162000bad565b60808401516001600160401b03811162000b825782620000df91860162000bad565b60a085015190926001600160401b03821162000b82576200010291860162000bad565b60c08501516001600160a01b038116979194919088900362000b825760e086015161010090960151875190976001600160401b038211620005725760035490600182811c9216801562000b77575b6020831014620005515781601f84931162000b02575b50602090601f831160011462000a775760009262000a6b575b50508160011b916000199060031b1c1916176003555b8051906001600160401b038211620005725760045490600182811c9216801562000a60575b6020831014620005515781601f849311620009eb575b50602090601f83116001146200095c5760009262000950575b50508160011b916000199060031b1c1916176004555b60017f9b779b17422d0df92223018b32b4d1fa46e071723d6817e2486d003becc55f005586156200090d578415620008c95785156200087557600980546001600160a01b031916881790558051906001600160401b038211620005725760055490600182811c921680156200086a575b6020831014620005515781601f84931162000811575b50602090601f8311600114620007825760009262000776575b50508160011b916000199060031b1c1916176005555b8051906001600160401b038211620005725760065490600182811c921680156200076b575b6020831014620005515781601f84931162000707575b50602090601f831160011462000689576000926200067d575b50508160011b916000199060031b1c1916176006555b8051906001600160401b038211620005725760075490600182811c9216801562000672575b6020831014620005515781601f8493116200060e575b50602090601f8311600114620005945760009262000588575b50508160011b916000199060031b1c1916176007555b8051906001600160401b038211620005725760085490600182811c9216801562000567575b6020831014620005515781601f849311620004ed575b50602090601f8311600114620004735760009262000467575b50508160011b916000199060031b1c1916176008555b600a5560025490808201809211620004515760207fddf252ad1be2c89b69c2b068fc378daa952ba7f163c4a11628f55a4df523b3ef916000936002558484528382528584208181540190558551908152a3516111e0908162000c208239f35b634e487b7160e01b600052601160045260246000fd5b015190503880620003dc565b6008600090815260008051602062001e208339815191529350601f198516905b818110620004d45750908460019594939210620004ba575b505050811b01600855620003f2565b015160001960f88460031b161c19169055388080620004ab565b9293602060018192878601518155019501930162000493565b600860005290915060008051602062001e20833981519152601f840160051c8101916020851062000546575b90601f859493920160051c01905b818110620005365750620003c3565b6000815584935060010162000527565b909150819062000519565b634e487b7160e01b600052602260045260246000fd5b91607f1691620003ad565b634e487b7160e01b600052604160045260246000fd5b01519050388062000372565b6007600090815260008051602062001e008339815191529350601f198516905b818110620005f55750908460019594939210620005db575b505050811b0160075562000388565b015160001960f88460031b161c19169055388080620005cc565b92936020600181928786015181550195019301620005b4565b600760005290915060008051602062001e00833981519152601f840160051c8101916020851062000667575b90601f859493920160051c01905b81811062000657575062000359565b6000815584935060010162000648565b90915081906200063a565b91607f169162000343565b01519050388062000308565b60066000908152935060008051602062001e4083398151915291905b601f1984168510620006eb576001945083601f19811610620006d1575b505050811b016006556200031e565b015160001960f88460031b161c19169055388080620006c2565b81810151835560209485019460019093019290910190620006a5565b600660005290915060008051602062001e40833981519152601f840160051c8101916020851062000760575b90601f859493920160051c01905b818110620007505750620002ef565b6000815584935060010162000741565b909150819062000733565b91607f1691620002d9565b0151905038806200029e565b6005600090815293507f036b6384b5eca791c62761152d0c79bb0604c104a5fb6f4eb0703f3154bb3db091905b601f1984168510620007f5576001945083601f19811610620007db575b505050811b01600555620002b4565b015160001960f88460031b161c19169055388080620007cc565b81810151835560209485019460019093019290910190620007af565b90915060056000526020600020601f840160051c810191602085106200085f575b90601f859493920160051c01905b8181106200084f575062000285565b6000815584935060010162000840565b909150819062000832565b91607f16916200026f565b875162461bcd60e51b815260206004820152602760248201527f436172626f6e546f6b656e3a20696e697469616c20737570706c79206d7573746044820152660206265203e20360cc1b6064820152608490fd5b875162461bcd60e51b815260206004820152601e60248201527f436172626f6e546f6b656e3a207072696365206d757374206265203e203000006044820152606490fd5b6064885162461bcd60e51b815260206004820152602060248201527f436172626f6e546f6b656e3a207a65726f2069737375657220616464726573736044820152fd5b015190503880620001e9565b6004600090815293507f8a35acfbc15ff81a39ae7d344fd709f28e8600b4aa8c65c6b64bfe7fe36bd19b91905b601f1984168510620009cf576001945083601f19811610620009b5575b505050811b01600455620001ff565b015160001960f88460031b161c19169055388080620009a6565b8181015183556020948501946001909301929091019062000989565b60046000529091507f8a35acfbc15ff81a39ae7d344fd709f28e8600b4aa8c65c6b64bfe7fe36bd19b601f840160051c8101916020851062000a55575b90601f859493920160051c01905b81811062000a455750620001d0565b6000815584935060010162000a36565b909150819062000a28565b91607f1691620001ba565b0151905038806200017f565b600360009081527fc2575a0e9e593c00f959f8c92f12db2869c3395a3b0502d05e2516446f71f85b9350601f198516905b81811062000ae9575090846001959493921062000acf575b505050811b0160035562000195565b015160001960f88460031b161c1916905538808062000ac0565b9293602060018192878601518155019501930162000aa8565b60036000529091507fc2575a0e9e593c00f959f8c92f12db2869c3395a3b0502d05e2516446f71f85b601f840160051c8101916020851062000b6c575b90601f859493920160051c01905b81811062000b5c575062000166565b6000815584935060010162000b4d565b909150819062000b3f565b91607f169162000150565b600080fd5b6040519190601f01601f191682016001600160401b038111838210176200057257604052565b919080601f8401121562000b825782516001600160401b038111620005725760209062000be3601f8201601f1916830162000b87565b9281845282828701011162000b825760005b81811062000c0b57508260009394955001015290565b858101830151848201840152820162000bf556fe6080604090808252600480361015610022575b505050361561002057600080fd5b005b600091823560e01c90816306fdde0314610e2d57508063095ea7b314610d8257806318160ddd14610d635780631d14384814610d3a57806323b872dd14610c44578063313ce56714610c285780633790cf5714610aa05780633ccfd60b1461094d5780634d8f59f01461092e57806370a08231146108f75780637b1b1de6146108d857806380007e83146108b45780638d6cc56d1461080f57806395d89b411461073b5780639a33e30014610691578063a0712d68146105ef578063a9059cbb146105be578063c2fc0d2614610514578063ca6f3d281461046a578063d8b0b49914610389578063dd62ed3e146103405763e87e922d03610012573461033c576020928360031936011261033857813567ffffffffffffffff9283821161033057366023830112156103305781013592831161033457602490368285830101116103305761017b60018060a01b036009541633146110c2565b610186600854610f4f565b601f81116102ce575b5084601f851160011461022057958483819382606097968a9b7fe8a9a39050d160223197676ce458111c545ecf768ee7a74b1308b3acc7cf6efa9b92610213575b50508360011b906000198560031b1c1916176008555b8551978689978852870152018585013782820184018790524290830152601f01601f19168101030190a180f35b83010135905082386101d0565b600886527ff3f7a9fe364faab93b216da50a3214154f22a0a2b415b23a84c8169e8b636ee390601f198616875b8181106102b557509386937fe8a9a39050d160223197676ce458111c545ecf768ee7a74b1308b3acc7cf6efa9899938593846060999810610299575b5050600183811b016008556101e6565b8201830135600019600386901b60f8161c191690553880610289565b919289600181928887890101358155019401920161024d565b600886527ff3f7a9fe364faab93b216da50a3214154f22a0a2b415b23a84c8169e8b636ee3601f860160051c810191888710610326575b601f0160051c01905b81811061031b575061018f565b86815560010161030e565b9091508190610305565b8480fd5b8380fd5b8280fd5b5080fd5b82843461033c578060031936011261033c578060209261035e610f1e565b610366610f39565b6001600160a01b0391821683526001865283832091168252845220549051908152f35b82843461033c578160031936011261033c57805190826007546103ab81610f4f565b8085529160019180831690811561044257506001146103e5575b5050506103d7826103e1940383610f89565b5191829182610ed5565b0390f35b9450600785527fa66cc928b5edb82af9bd49922954155ab7b0942694bea4ce44661d9a8736c6885b82861061042a575050506103d78260206103e195820101946103c5565b8054602087870181019190915290950194810161040d565b6103e19750869350602092506103d794915060ff191682840152151560051b820101946103c5565b82843461033c578160031936011261033c578051908260085461048c81610f4f565b8085529160019180831690811561044257506001146104b7575050506103d7826103e1940383610f89565b9450600885527ff3f7a9fe364faab93b216da50a3214154f22a0a2b415b23a84c8169e8b636ee35b8286106104fc575050506103d78260206103e195820101946103c5565b805460208787018101919091529095019481016104df565b82843461033c578160031936011261033c578051908260065461053681610f4f565b808552916001918083169081156104425750600114610561575050506103d7826103e1940383610f89565b9450600685527ff652222313e28459528d920b65115c16c04f3efc82aaedc97be59f3f377c0d3f5b8286106105a6575050506103d78260206103e195820101946103c5565b80546020878701810191909152909501948101610589565b82843461033c578060031936011261033c576020906105e86105de610f1e565b6024359033610fc1565b5160018152f35b508234610338576020366003190112610338576009546001600160a01b0316918035919061061e3385146110c2565b61062983151561111c565b831561067c57506020827fddf252ad1be2c89b69c2b068fc378daa952ba7f163c4a11628f55a4df523b3ef92610662879560025461109f565b60025585855284835280852082815401905551908152a380f35b84602492519163ec442f0560e01b8352820152fd5b82843461033c578160031936011261033c57805190826005546106b381610f4f565b8085529160019180831690811561044257506001146106de575050506103d7826103e1940383610f89565b9450600585527f036b6384b5eca791c62761152d0c79bb0604c104a5fb6f4eb0703f3154bb3db05b828610610723575050506103d78260206103e195820101946103c5565b80546020878701810191909152909501948101610706565b5082346103385782600319360112610338578051918381549061075d82610f4f565b808652926001928084169081156107e45750600114610788575b6103e186866103d7828b0383610f89565b815294507f8a35acfbc15ff81a39ae7d344fd709f28e8600b4aa8c65c6b64bfe7fe36bd19b5b8286106107cc575050506103d78260206103e1958201019486610777565b805460208787018101919091529095019481016107ae565b90506103e19750869350602092506103d794915060ff191682840152151560051b8201019486610777565b5082346103385760203660031901126103385781359161083a60018060a01b036009541633146110c2565b82156108725750816020917f66cbca4f3c64fecf1dcb9ce094abcf7f68c3450a1d4e3a8e917dd621edb4ebe093600a5551908152a180f35b6020606492519162461bcd60e51b8352820152601e60248201527f436172626f6e546f6b656e3a207072696365206d757374206265203e203000006044820152fd5b82843461033c578160031936011261033c5760209060ff600b541690519015158152f35b82843461033c578160031936011261033c57602090600a549051908152f35b82843461033c57602036600319011261033c5760209181906001600160a01b0361091f610f1e565b16815280845220549051908152f35b82843461033c578160031936011261033c57602090600c549051908152f35b5082346103385782600319360112610338576009546001600160a01b039061097890821633146110c2565b610980611168565b47908115610a5d57848080938193600954165af13d15610a58573d67ffffffffffffffff8111610a45578251906109c1601f8201601f191660200183610f89565b81528460203d92013e5b156109f8578260017f9b779b17422d0df92223018b32b4d1fa46e071723d6817e2486d003becc55f005580f35b906020608492519162461bcd60e51b8352820152602160248201527f436172626f6e546f6b656e3a2041564158207472616e73666572206661696c656044820152601960fa1b6064820152fd5b634e487b7160e01b855260418452602485fd5b6109cb565b825162461bcd60e51b8152602081860181905260248201527f436172626f6e546f6b656e3a206e6f204156415820746f2077697468647261776044820152606490fd5b50913461033c576020908160031936011261033857833591610ac0611168565b610acb83151561111c565b338452838152828285205410610bdc57610ae783600c5461109f565b600c553315610bc5573384528381528184205494838610610b9a5750827f5f42de6df61702eb8d413e46d7ba2e5b1b5607dc4feaf27c01d9907cff186d9b939495338752868352038286205583600254036002558482518581527fddf252ad1be2c89b69c2b068fc378daa952ba7f163c4a11628f55a4df523b3ef833392a3815193845242908401523392a260017f9b779b17422d0df92223018b32b4d1fa46e071723d6817e2486d003becc55f005580f35b825163391434e360e21b81523391810191825260208201879052604082018590529081906060010390fd5b8151634b637e8f60e11b8152808601859052602490fd5b8490608492519162461bcd60e51b8352820152602160248201527f436172626f6e546f6b656e3a20696e73756666696369656e742062616c616e636044820152606560f81b6064820152fd5b82843461033c578160031936011261033c576020905160128152f35b509034610d37576060366003190112610d3757610c5f610f1e565b610c67610f39565b916044359360018060a01b038316808352600160205286832033845260205286832054916000198310610ca3575b6020886105e8898989610fc1565b868310610d0b578115610cf4573315610cdd575082526001602090815286832033845281529186902090859003905582906105e838610c95565b8751634a1406b160e11b8152908101849052602490fd5b875163e602df0560e01b8152908101849052602490fd5b8751637dc7a0d960e11b8152339181019182526020820193909352604081018790528291506060010390fd5b80fd5b82843461033c578160031936011261033c5760095490516001600160a01b039091168152602090f35b82843461033c578160031936011261033c576020906002549051908152f35b50829034610338578160031936011261033857610d9d610f1e565b602435903315610e16576001600160a01b0316918215610dff57508083602095338152600187528181208582528752205582519081527f8c5be1e5ebec7d5bd14f71427d1e84f3dd0314c0f7b2291e5b200ac8c7c3b925843392a35160018152f35b8351634a1406b160e11b8152908101859052602490fd5b835163e602df0560e01b8152808401869052602490fd5b8390853461033857826003193601126103385782600354610e4d81610f4f565b808552916001918083169081156104425750600114610e78575050506103d7826103e1940383610f89565b9450600385527fc2575a0e9e593c00f959f8c92f12db2869c3395a3b0502d05e2516446f71f85b5b828610610ebd575050506103d78260206103e195820101946103c5565b80546020878701810191909152909501948101610ea0565b6020808252825181830181905290939260005b828110610f0a57505060409293506000838284010152601f8019910116010190565b818101860151848201604001528501610ee8565b600435906001600160a01b0382168203610f3457565b600080fd5b602435906001600160a01b0382168203610f3457565b90600182811c92168015610f7f575b6020831014610f6957565b634e487b7160e01b600052602260045260246000fd5b91607f1691610f5e565b90601f8019910116810190811067ffffffffffffffff821117610fab57604052565b634e487b7160e01b600052604160045260246000fd5b916001600160a01b03808416928315611086571692831561106d576000908382528160205260408220549083821061103b575091604082827fddf252ad1be2c89b69c2b068fc378daa952ba7f163c4a11628f55a4df523b3ef958760209652828652038282205586815220818154019055604051908152a3565b60405163391434e360e21b81526001600160a01b03919091166004820152602481019190915260448101839052606490fd5b60405163ec442f0560e01b815260006004820152602490fd5b604051634b637e8f60e11b815260006004820152602490fd5b919082018092116110ac57565b634e487b7160e01b600052601160045260246000fd5b156110c957565b60405162461bcd60e51b815260206004820152602560248201527f436172626f6e546f6b656e3a2063616c6c6572206973206e6f7420746865206960448201526439b9bab2b960d91b6064820152608490fd5b1561112357565b60405162461bcd60e51b815260206004820152601f60248201527f436172626f6e546f6b656e3a20616d6f756e74206d757374206265203e2030006044820152606490fd5b7f9b779b17422d0df92223018b32b4d1fa46e071723d6817e2486d003becc55f0060028154146111985760029055565b604051633ee5aeb560e01b8152600490fdfea2646970667358221220a6fb6857b6686d7b783755d2c6b3e73cf2b3ce1bb36660655a60e183ee823cdb64736f6c63430008140033a66cc928b5edb82af9bd49922954155ab7b0942694bea4ce44661d9a8736c688f3f7a9fe364faab93b216da50a3214154f22a0a2b415b23a84c8169e8b636ee3f652222313e28459528d920b65115c16c04f3efc82aaedc97be59f3f377c0d3f",
  "linkReferences": {},
  "deployedLinkReferences": {}
}