{
  "_format": "hh-sol-artifact-1",
  "contractName": "CarbonMarketplace",
  "sourceName": "contracts/CarbonMarketplace.sol",
  "abi": [
    {
      "inputs": [
        {
          "internalType": "uint256",
          "name": "_platformFeeBps",
          "type": "uint256"
        },
        {
          "internalType": "address",
          "name": "_feeRecipient",
          "type": "address"
        }
      ],
      "stateMutability": "nonpayable",
      "type": "constructor"
    },
    {
      "inputs": [
        {
          "internalType": "address",
          "name": "owner",
          "type": "address"
        }
      ],
      "name": "OwnableInvalidOwner",
      "type": "error"
    },
    {
      "inputs": [
        {
          "internalType": "address",
          "name": "account",
          "type": "address"
        }
      ],
      "name": "OwnableUnauthorizedAccount",
      "type": "error"
    },
    {
      "inputs": [],
      "name": "ReentrancyGuardReentrantCall",
      "type": "error"
    },
    {
      "anonymous": false,
      "inputs": [
        {
          "indexed": true,
          "internalType": "address",
          "name": "previousOwner",
          "type": "address"
        },
        {
          "indexed": true,
          "internalType": "address",
          "name": "newOwner",
          "type": "address"
        }
      ],
      "name": "OwnershipTransferred",
      "type": "event"
    },
    {
      "anonymous": false,
      "inputs": [
        {
          "indexed": true,
          "internalType": "address",
          "name": "issuer",
          "type": "address"
        },
        {
          "indexed": true,
          "internalType": "address",
          "name": "tokenContract",
          "type": "address"
        },
        {
          "indexed": false,
          "internalType": "string",
          "name": "projectName",
          "type": "string"
        },
        {
          "indexed": false,
          "internalType": "uint256",
          "name": "timestamp",
          "type": "uint256"
        }
      ],
      "name": "ProjectCreated",
      "type": "event"
    },
    {
      "anonymous": false,
      "inputs": [
        {
          "indexed": true,
          "internalType": "address",
          "name": "project",
          "type": "address"
        },
        {
          "indexed": false,
          "internalType": "uint256",
          "name": "timestamp",
          "type": "uint256"
        }
      ],
      "name": "ProjectRevoked",
      "type": "event"
    },
    {
      "anonymous": false,
      "inputs": [
        {
          "indexed": true,
          "internalType": "address",
          "name": "project",
          "type": "address"
        },
        {
          "indexed": false,
          "internalType": "uint256",
          "name": "timestamp",
          "type": "uint256"
        }
      ],
      "name": "ProjectVerified",
      "type": "event"
    },
    {
      "anonymous": false,
      "inputs": [
        {
          "indexed": true,
          "internalType": "address",
          "name": "buyer",
          "type": "address"
        },
        {
          "indexed": true,
          "internalType": "address",
          "name": "project",
          "type": "address"
        },
        {
          "indexed": false,
          "internalType": "uint256",
          "name": "amount",
          "type": "uint256"
        },
        {
          "indexed": false,
          "internalType": "uint256",
          "name": "avaxPaid",
          "type": "uint256"
        },
        {
          "indexed": false,
          "internalType": "uint256",
          "name": "timestamp",
          "type": "uint256"
        }
      ],
      "name": "TokensPurchased",
      "type": "event"
    },
    {
      "inputs": [
        {
          "internalType": "uint256",
          "name": "",
          "type": "uint256"
        }
      ],
      "name": "allProjects",
      "outputs": [
        {
          "internalType": "address",
          "name": "",
          "type": "address"
        }
      ],
      "stateMutability": "view",
      "type": "function"
    },
    {
      "inputs": [
        {
          "internalType": "address",
          "name": "projectToken",
          "type": "address"
        },
        {
          "internalType": "uint256",
          "name": "amount",
          "type": "uint256"
        }
      ],
      "name": "buyTokens",
      "outputs": [],
      "stateMutability": "payable",
      "type": "function"
    },
    {
      "inputs": [
        {
          "internalType": "string",
          "name": "name",
          "type": "string"
        },
        {
          "internalType": "string",
          "name": "symbol",
          "type": "string"
        },
        {
          "internalType": "string",
          "name": "_projectName",
          "type": "string"
        },
        {
          "internalType": "string",
          "name": "_projectType",
          "type": "string"
        },
        {
          "internalType": "string",
          "name": "_country",
          "type": "string"
        },
        {
          "internalType": "string",
          "name": "_evidenceURI",
          "type": "string"
        },
        {
          "internalType": "uint256",
          "name": "_pricePerToken",
          "type": "uint256"
        },
        {
          "internalType": "uint256",
          "name": "initialSupply",
          "type": "uint256"
        }
      ],
      "name": "createProject",
      "outputs": [
        {
          "internalType": "address",
          "name": "tokenAddress",
          "type": "address"
        }
      ],
      "stateMutability": "nonpayable",
      "type": "function"
    },
    {
      "inputs": [],
      "name": "feeRecipient",
      "outputs": [
        {
          "internalType": "address",
          "name": "",
          "type": "address"
        }
      ],
      "stateMutability": "view",
      "type": "function"
    },
    {
      "inputs": [],
      "name": "getAllProjects",
      "outputs": [
        {
          "internalType": "address[]",
          "name": "",
          "type": "address[]"
        }
      ],
      "stateMutability": "view",
      "type": "function"
    },
    {
      "inputs": [
        {
          "internalType": "address",
          "name": "issuerAddress",
          "type": "address"
        }
      ],
      "name": "getIssuerProjects",
      "outputs": [
        {
          "internalType": "address[]",
          "name": "",
          "type": "address[]"
        }
      ],
      "stateMutability": "view",
      "type": "function"
    },
    {
      "inputs": [
        {
          "internalType": "address",
          "name": "projectToken",
          "type": "address"
        }
      ],
      "name": "getProjectDetails",
      "outputs": [
        {
          "internalType": "string",
          "name": "tokenProjectName",
          "type": "string"
        },
        {
          "internalType": "string",
          "name": "tokenProjectType",
          "type": "string"
        },
        {
          "internalType": "string",
          "name": "tokenCountry",
          "type": "string"
        },
        {
          "internalType": "string",
          "name": "tokenEvidenceURI",
          "type": "string"
        },
        {
          "internalType": "address",
          "name": "tokenIssuer",
          "type": "address"
        },
        {
          "internalType": "uint256",
          "name": "tokenPrice",
          "type": "uint256"
        },
        {
          "internalType": "bool",
          "name": "tokenVerified",
          "type": "bool"
        },
        {
          "internalType": "uint256",
          "name": "tokenTotalSupply",
          "type": "uint256"
        },
        {
          "internalType": "uint256",
          "name": "tokenTotalRetired",
          "type": "uint256"
        }
      ],
      "stateMutability": "view",
      "type": "function"
    },
    {
      "inputs": [
        {
          "internalType": "address",
          "name": "",
          "type": "address"
        },
        {
          "internalType": "uint256",
          "name": "",
          "type": "uint256"
        }
      ],
      "name": "issuerProjects",
      "outputs": [
        {
          "internalType": "address",
          "name": "",
          "type": "address"
        }
      ],
      "stateMutability": "view",
      "type": "function"
    },
    {
      "inputs": [],
      "name": "owner",
      "outputs": [
        {
          "internalType": "address",
          "name": "",
          "type": "address"
        }
      ],
      "stateMutability": "view",
      "type": "function"
    },
    {
      "inputs": [],
      "name": "platformFeeBps",
      "outputs": [
        {
          "internalType": "uint256",
          "name": "",
          "type": "uint256"
        }
      ],
      "stateMutability": "view",
      "type": "function"
    },
    {
      "inputs": [],
      "name": "renounceOwnership",
      "outputs": [],
      "stateMutability": "nonpayable",
      "type": "function"
    },
    {
      "inputs": [
        {
          "internalType": "address",
          "name": "projectToken",
          "type": "address"
        }
      ],
      "name": "revokeVerification",
      "outputs": [],
      "stateMutability": "nonpayable",
      "type": "function"
    },
    {
      "inputs": [
        {
          "internalType": "address",
          "name": "newOwner",
          "type": "address"
        }
      ],
      "name": "transferOwnership",
      "outputs": [],
      "stateMutability": "nonpayable",
      "type": "function"
    },
    {
      "inputs": [
        {
          "internalType": "uint256",
          "name": "newFeeBps",
          "type": "uint256"
        }
      ],
      "name": "updatePlatformFee",
      "outputs": [],
      "stateMutability": "nonpayable",
      "type": "function"
    },
    {
      "inputs": [
        {
          "internalType": "address",
          "name": "",
          "type": "address"
        }
      ],
      "name": "verifiedProjects",
      "outputs": [
        {
          "internalType": "bool",
          "name": "",
          "type": "bool"
        }
      ],
      "stateMutability": "view",
      "type": "function"
    },
    {
      "inputs": [
        {
          "internalType": "address",
          "name": "projectToken",
          "type": "address"
        }
      ],
      "name": "verifyProject",
      "outputs": [],
      "stateMutability": "nonpayable",
      "type": "function"
    },
    {
      "stateMutability": "payable",
      "type": "receive"
    }
  ],
  "bytecode": "0x6080346101a6576137d290601f38839003908101601f19168201906001600160401b038211838310176101ab57808391604095869485528339810103126101a65780516020909101516001600160a01b038082169290918390036101a65760017f9b779b17422d0df92223018b32b4d1fa46e071723d6817e2486d003becc55f0055331561018e576000549160018060a01b03199233848216176000558551913391167f8be0079c531659141344cd1fd0a4f28419497f9722a3daafe3b4186f6b6457e0600080a36103e88211610141575082156100ef5760045560055416176005555161361090816101c28239f35b835162461bcd60e51b815260206004820152602560248201527f436172626f6e4d61726b6574706c6163653a207a65726f2066656520726563696044820152641c1a595b9d60da1b6064820152608490fd5b62461bcd60e51b815260206004820152602260248201527f436172626f6e4d61726b6574706c6163653a2066656520657863656564732031604482015261302560f01b6064820152608490fd5b8351631e4fbdf760e01b815260006004820152602490fd5b600080fd5b634e487b7160e01b600052604160045260246000fdfe60806040908082526004908136101562000081575b5036156200002157600080fd5b6020608492519162461bcd60e51b8352820152603560248201527f436172626f6e4d61726b6574706c6163653a20646972656374204156415820746044820152741c985b9cd9995c9cc81b9bdd081858d8d95c1d1959605a1b6064820152fd5b600090813560e01c9081630752881a1462000e545750806322dcd13e1462000e3357806331a7883c1462000aac578063469048401462000a8157806353b3194c1462000a26578063715018a614620009c85780637ea7966e14620008a657806380d03829146200081e5780638da5cb5b14620007f45780639096675b14620004615780639c39af01146200041f578063aa0b5988146200039f578063de5b2977146200030e578063e998d2fa1462000243578063ea12677414620001dc5763f2fde38b036200001457919034620001d8576020366003190112620001d85762000169620014e1565b906200017462001661565b6001600160a01b03918216928315620001c257505082546001600160a01b0319811683178455167f8be0079c531659141344cd1fd0a4f28419497f9722a3daafe3b4186f6b6457e08380a380f35b51631e4fbdf760e01b8152908101849052602490fd5b8280fd5b5082346200023f57806003193601126200023f57620001fa620014e1565b6001600160a01b0390811683526002602052818320805460243594908510156200023c57506020936200022d91620015a0565b92905490519260031b1c168152f35b80fd5b5080fd5b509134620001d8576020366003190112620001d85762000262620014e1565b6200026c62001661565b6001600160a01b031680845260036020528184205490929060ff1615620002cc575060207fd831a5cce934402963bc9bd9e5e9a86684be7a046ba8084a4409a7e8f669c878918385526003825280852060ff19815416905551428152a280f35b6020606492519162461bcd60e51b8352820152601f60248201527f436172626f6e4d61726b6574706c6163653a206e6f74207665726966696564006044820152fd5b5082346200023f5760209081600319360112620001d8576001600160a01b03928362000339620014e1565b16815260028352818120938251908194808754938481520196845280842093915b838310620003855762000381878762000376828c0383620014fd565b5191829182620015cf565b0390f35b84548116885296810196600194850194909201916200035a565b50919034620001d8576020366003190112620001d857803591620003c262001661565b6103e88311620003d157505580f35b906020608492519162461bcd60e51b8352820152602260248201527f436172626f6e4d61726b6574706c6163653a2066656520657863656564732031604482015261302560f01b6064820152fd5b5082346200023f5760203660031901126200023f5760209160ff9082906001600160a01b036200044e620014e1565b1681526003855220541690519015158152f35b509134620001d857602092836003193601126200023c576001600160a01b0392836200048c620014e1565b1690835194629a33e360e81b865283868381865afa958615620007ea578496620007ca575b50845163617e069360e11b81529084828481875afa918215620007c0578592620007a0575b50855163d8b0b49960e01b815285818581885afa9081156200079657869162000778575b50865163194de7a560e31b81529086828681895afa9182156200076e57879262000745575b5087516303a2870960e31b8152978a8987818a5afa9889156200073b57889962000705575b508051633d8d8ef360e11b8152948b8688818b5afa958615620006fb578996620006c2575b5087895260038c5260ff828a205416968251986318160ddd60e01b8a528d8a8381845afa998a15620006b857908e918c9b6200067d575b5084516304d8f59f60e41b815292839182905afa998a156200067257809a6200063a575b505081519b8c9b8c6101208091528d01620005df916200163a565b908c8203908d0152620005f2916200163a565b908a8203908b015262000605916200163a565b88810360608a015262000618916200163a565b9516608087015260a0860152151560c085015260e08401526101008301520390f35b909199508c82813d83116200066a575b620006568183620014fd565b810103126200023c575051973880620005c4565b503d6200064a565b8351903d90823e3d90fd5b828193929c503d8311620006b0575b620006988183620014fd565b81010312620006ac578d90519938620005a0565b8a80fd5b503d6200068c565b84513d8d823e3d90fd5b9095508b81813d8311620006f3575b620006dd8183620014fd565b81010312620006ef5751943862000569565b8880fd5b503d620006d1565b82513d8b823e3d90fd5b6200072b9199508b3d8d1162000733575b620007228183620014fd565b810190620016b8565b973862000544565b503d62000716565b81513d8a823e3d90fd5b620007669192503d8089833e6200075d8183620014fd565b8101906200170e565b90386200051f565b88513d89823e3d90fd5b6200078f91503d8088833e6200075d8183620014fd565b38620004fa565b87513d88823e3d90fd5b620007b89192503d8087833e6200075d8183620014fd565b9038620004d6565b86513d87823e3d90fd5b620007e29196503d8086833e6200075d8183620014fd565b9438620004b1565b85513d86823e3d90fd5b5082346200023f57816003193601126200023f57905490516001600160a01b039091168152602090f35b8382346200023c57806003193601126200023c578151918291600180548086526020809601958284527fb10e2d527612073b26eecdfd717e6a320cf44b4afac2b0732d9fcbe2b7fa0cf693905b828210620008875762000381878762000376828c0383620014fd565b84546001600160a01b031688529687019693830193908301906200086b565b509134620001d85760209081600319360112620009c457620008c7620014e1565b620008d162001661565b6001600160a01b031692831562000983578385526003835260ff828620541662000936575082845260038252808420805460ff19166001179055514281527fd79812d0274896b5f7dcdf0879433edfc42fb85c034df93067b27aa8b77c9b599190a280f35b82608492519162461bcd60e51b8352820152602360248201527f436172626f6e4d61726b6574706c6163653a20616c72656164792076657269666044820152621a595960ea1b6064820152fd5b82606492519162461bcd60e51b8352820152601f60248201527f436172626f6e4d61726b6574706c6163653a207a65726f2061646472657373006044820152fd5b8380fd5b50346200023c57806003193601126200023c57620009e562001661565b80546001600160a01b03198116825581906001600160a01b03167f8be0079c531659141344cd1fd0a4f28419497f9722a3daafe3b4186f6b6457e08280a380f35b50919034620001d8576020366003190112620001d85735600154811015620001d85760016020935260018060a01b03907fb10e2d527612073b26eecdfd717e6a320cf44b4afac2b0732d9fcbe2b7fa0cf60154169051908152f35b5082346200023f57816003193601126200023f5760055490516001600160a01b039091168152602090f35b5082346200023f576101009283600319360112620001d85767ffffffffffffffff9281358481116200023f5762000ae7903690840162001553565b6024948535818111620009c45762000b03903690860162001553565b60443582811162000e2f5762000b1d903690870162001553565b9760643583811162000e2b5762000b38903690880162001553565b9260843581811162000e275762000b53903690890162001553565b60a43582811162000e235762000b6d9036908a0162001553565b9060c4359560e43595871562000dd457861562000d83578b5198611e60808b019687118b88101762000d71578f9362000bf38f8d9c9b9a99989662000be562000c11978f62000c209b9862000c029862000bd6926200177b9039610120808f528e01906200163a565b8c810360208e0152906200163a565b918a8303908b01526200163a565b9087820360608901526200163a565b9085820360808701526200163a565b9083820360a08501526200163a565b933360c083015260e08201520152039082f091821562000d65576001546001600160a01b0393841695680100000000000000009390918481101562000d5457600181018060015581101562000d43577fb10e2d527612073b26eecdfd717e6a320cf44b4afac2b0732d9fcbe2b7fa0cf601876bffffffffffffffffffffffff60a01b82541617905533815260026020528581209283549485101562000d33575050509162000cd9828694600160209995018155620015a0565b819291549060031b9185831b921b19161790557fa5e5114bddd29038323201aff93e58f1457b01d0cdb261d329cc1f21f0fca69f62000d21845192858452858401906200163a565b9142878201528033930390a351908152f35b634e487b7160e01b825260419052fd5b50634e487b7160e01b815260328352fd5b50634e487b7160e01b815260418352fd5b508251903d90823e3d90fd5b634e487b7160e01b8c5260418d528e8cfd5b508a5162461bcd60e51b81526020818c01526025818e01527f436172626f6e4d61726b6574706c6163653a20737570706c79206d7573742062604482015264065203e20360dc1b6064820152608490fd5b8b5162461bcd60e51b81526020818d0152808e018e90527f436172626f6e4d61726b6574706c6163653a207072696365206d7573742062656044820152630203e20360e41b6064820152608490fd5b8780fd5b8680fd5b8580fd5b8480fd5b50919034620001d85782600319360112620001d85760209250549051908152f35b9192905083600319360112620001d85762000e6e620014e1565b906024948535917f9b779b17422d0df92223018b32b4d1fa46e071723d6817e2486d003becc55f00946002865414620014d55750600285556001600160a01b038481169490919085156200148557841562001435578588526020926003845260ff858a20541615620013e3578451633d8d8ef360e11b8152848185818b5afa8015620013d95787908b906200139d575b62000f0a92506200168e565b9061271062000f1b8554846200168e565b04918281018082116200138b573403620013385786516303a2870960e31b815293868587818d5afa9485156200132e578c956200130a575b508751636eb1769f60e11b8152948316868601819052308e870152604495888188818f5afa9081156200126857908b918f91620012d3575b501062001274578d888c8b51928380926370a0823160e01b8252868d8301525afa9081156200126857908b918f916200122d575b5010620011d257878e9160648f8a908f8f8f5197889687956323b872dd60e01b875286015233908501528c8401525af1908115620011c8578d9162001187575b501562001135578b80809381935af162001018620016d9565b5015620010db578162001068575b5050505060019596508151928352349083015242908201527f377aadedb6b2a771959584d10a6a36eccb5f56b4eb3a48525f76108d2660d8d460603392a35580f35b898080938193600554165af16200107e620016d9565b50156200108d57808062001026565b6026897f436172626f6e4d61726b6574706c6163653a20666565207472616e73666572209394608496519562461bcd60e51b87528601528401528201526519985a5b195960d21b6064820152fd5b855162461bcd60e51b81528085018690526030818d01527f436172626f6e4d61726b6574706c6163653a204156415820746f20746f6b656e818501526f0818dbdb9d1c9858dd0819985a5b195960821b6064820152608490fd5b875162461bcd60e51b81528087018890526028818f01527f436172626f6e4d61726b6574706c6163653a20746f6b656e207472616e73666581870152671c8819985a5b195960c21b6064820152608490fd5b90508781813d8311620011c0575b620011a18183620014fd565b81010312620011bc57518015158103620011bc573862000fff565b8c80fd5b503d62001195565b89513d8f823e3d90fd5b6084878f8860317f436172626f6e4d61726b6574706c6163653a206973737565722068617320696e928d8f519562461bcd60e51b87528601528401528201527073756666696369656e7420746f6b656e7360781b6064820152fd5b8092508a8092503d831162001260575b620012498183620014fd565b810103126200125c578a90513862000fbf565b8d80fd5b503d6200123d565b8e8b51903d90823e3d90fd5b6084878f8860357f436172626f6e4d61726b6574706c6163653a206d61726b6574706c616365206e928d8f519562461bcd60e51b87528601528401528201527437ba1030b8383937bb32b210313c9034b9b9bab2b960591b6064820152fd5b8092508a8092503d831162001302575b620012ef8183620014fd565b810103126200125c578a90513862000f8b565b503d620012e3565b62001326919550873d89116200073357620007228183620014fd565b933862000f53565b88513d8e823e3d90fd5b865162461bcd60e51b81528086018790526028818e01527f436172626f6e4d61726b6574706c6163653a20696e636f7272656374204156416044820152671608185b5bdd5b9d60c21b6064820152608490fd5b634e487b7160e01b8c52601186528c8cfd5b50508481813d8311620013d1575b620013b78183620014fd565b81010312620013cd578662000f0a915162000efe565b8980fd5b503d620013ab565b86513d8c823e3d90fd5b845162461bcd60e51b81528084018590526027818c01527f436172626f6e4d61726b6574706c6163653a2070726f6a656374206e6f742076604482015266195c9a599a595960ca1b6064820152608490fd5b835162461bcd60e51b81526020818401526025818b01527f436172626f6e4d61726b6574706c6163653a20616d6f756e74206d7573742062604482015264065203e20360dc1b6064820152608490fd5b835162461bcd60e51b81526020818401526025818b01527f436172626f6e4d61726b6574706c6163653a207a65726f20746f6b656e206164604482015264647265737360d81b6064820152608490fd5b633ee5aeb560e01b8152fd5b600435906001600160a01b0382168203620014f857565b600080fd5b90601f8019910116810190811067ffffffffffffffff8211176200152057604052565b634e487b7160e01b600052604160045260246000fd5b67ffffffffffffffff81116200152057601f01601f191660200190565b81601f82011215620014f8578035906200156d8262001536565b926200157d6040519485620014fd565b82845260208383010111620014f857816000926020809301838601378301015290565b8054821015620015b95760005260206000200190600090565b634e487b7160e01b600052603260045260246000fd5b6020908160408183019282815285518094520193019160005b828110620015f7575050505090565b83516001600160a01b031685529381019392810192600101620015e8565b60005b838110620016295750506000910152565b818101518382015260200162001618565b90602091620016558151809281855285808601910162001615565b601f01601f1916010190565b6000546001600160a01b031633036200167657565b60405163118cdaa760e01b8152336004820152602490fd5b81810292918115918404141715620016a257565b634e487b7160e01b600052601160045260246000fd5b90816020910312620014f857516001600160a01b0381168103620014f85790565b3d1562001709573d90620016ed8262001536565b91620016fd6040519384620014fd565b82523d6000602084013e565b606090565b602081830312620014f85780519067ffffffffffffffff8211620014f8570181601f82011215620014f8578051620017468162001536565b92620017566040519485620014fd565b81845260208284010111620014f85762001777916020808501910162001615565b9056fe6040608081523462000b825762001e60803803806200001e8162000b87565b9283398101906101208183031262000b825780516001600160401b03811162000b8257826200004f91830162000bad565b60208201519091906001600160401b03811162000b8257836200007491830162000bad565b818501519093906001600160401b03811162000b8257816200009891840162000bad565b60608301519091906001600160401b03811162000b825781620000bd91850162000bad565b60808401516001600160401b03811162000b825782620000df91860162000bad565b60a085015190926001600160401b03821162000b82576200010291860162000bad565b60c08501516001600160a01b038116979194919088900362000b825760e086015161010090960151875190976001600160401b038211620005725760035490600182811c9216801562000b77575b6020831014620005515781601f84931162000b02575b50602090601f831160011462000a775760009262000a6b575b50508160011b916000199060031b1c1916176003555b8051906001600160401b038211620005725760045490600182811c9216801562000a60575b6020831014620005515781601f849311620009eb575b50602090601f83116001146200095c5760009262000950575b50508160011b916000199060031b1c1916176004555b60017f9b779b17422d0df92223018b32b4d1fa46e071723d6817e2486d003becc55f005586156200090d578415620008c95785156200087557600980546001600160a01b031916881790558051906001600160401b038211620005725760055490600182811c921680156200086a575b6020831014620005515781601f84931162000811575b50602090601f8311600114620007825760009262000776575b50508160011b916000199060031b1c1916176005555b8051906001600160401b038211620005725760065490600182811c921680156200076b575b6020831014620005515781601f84931162000707575b50602090601f831160011462000689576000926200067d575b50508160011b916000199060031b1c1916176006555b8051906001600160401b038211620005725760075490600182811c9216801562000672575b6020831014620005515781601f8493116200060e575b50602090601f8311600114620005945760009262000588575b50508160011b916000199060031b1c1916176007555b8051906001600160401b038211620005725760085490600182811c9216801562000567575b6020831014620005515781601f849311620004ed575b50602090601f8311600114620004735760009262000467575b50508160011b916000199060031b1c1916176008555b600a5560025490808201809211620004515760207fddf252ad1be2c89b69c2b068fc378daa952ba7f163c4a11628f55a4df523b3ef916000936002558484528382528584208181540190558551908152a3516111e0908162000c208239f35b634e487b7160e01b600052601160045260246000fd5b015190503880620003dc565b6008600090815260008051602062001e208339815191529350601f198516905b818110620004d45750908460019594939210620004ba575b505050811b01600855620003f2565b015160001960f88460031b161c19169055388080620004ab565b9293602060018192878601518155019501930162000493565b600860005290915060008051602062001e20833981519152601f840160051c8101916020851062000546575b90601f859493920160051c01905b818110620005365750620003c3565b6000815584935060010162000527565b909150819062000519565b634e487b7160e01b600052602260045260246000fd5b91607f1691620003ad565b634e487b7160e01b600052604160045260246000fd5b01519050388062000372565b6007600090815260008051602062001e008339815191529350601f198516905b818110620005f55750908460019594939210620005db575b505050811b0160075562000388565b015160001960f88460031b161c19169055388080620005cc565b92936020600181928786015181550195019301620005b4565b600760005290915060008051602062001e00833981519152601f840160051c8101916020851062000667575b90601f859493920160051c01905b81811062000657575062000359565b6000815584935060010162000648565b90915081906200063a565b91607f169162000343565b01519050388062000308565b60066000908152935060008051602062001e4083398151915291905b601f1984168510620006eb576001945083601f19811610620006d1575b505050811b016006556200031e565b015160001960f88460031b161c19169055388080620006c2565b81810151835560209485019460019093019290910190620006a5565b600660005290915060008051602062001e40833981519152601f840160051c8101916020851062000760575b90601f859493920160051c01905b818110620007505750620002ef565b6000815584935060010162000741565b909150819062000733565b91607f1691620002d9565b0151905038806200029e565b6005600090815293507f036b6384b5eca791c62761152d0c79bb0604c104a5fb6f4eb0703f3154bb3db091905b601f1984168510620007f5576001945083601f19811610620007db575b505050811b01600555620002b4565b015160001960f88460031b161c19169055388080620007cc565b81810151835560209485019460019093019290910190620007af565b90915060056000526020600020601f840160051c810191602085106200085f575b90601f859493920160051c01905b8181106200084f575062000285565b6000815584935060010162000840565b909150819062000832565b91607f16916200026f565b875162461bcd60e51b815260206004820152602760248201527f436172626f6e546f6b656e3a20696e697469616c20737570706c79206d7573746044820152660206265203e20360cc1b6064820152608490fd5b875162461bcd60e51b815260206004820152601e60248201527f436172626f6e546f6b656e3a207072696365206d757374206265203e203000006044820152606490fd5b6064885162461bcd60e51b815260206004820152602060248201527f436172626f6e546f6b656e3a207a65726f2069737375657220616464726573736044820152fd5b015190503880620001e9565b6004600090815293507f8a35acfbc15ff81a39ae7d344fd709f28e8600b4aa8c65c6b64bfe7fe36bd19b91905b601f1984168510620009cf576001945083601f19811610620009b5575b505050811b01600455620001ff565b015160001960f88460031b161c19169055388080620009a6565b8181015183556020948501946001909301929091019062000989565b60046000529091507f8a35acfbc15ff81a39ae7d344fd709f28e8600b4aa8c65c6b64bfe7fe36bd19b601f840160051c8101916020851062000a55575b90601f859493920160051c01905b81811062000a455750620001d0565b6000815584935060010162000a36565b909150819062000a28565b91607f1691620001ba565b0151905038806200017f565b600360009081527fc2575a0e9e593c00f959f8c92f12db2869c3395a3b0502d05e2516446f71f85b9350601f198516905b81811062000ae9575090846001959493921062000acf575b505050811b0160035562000195565b015160001960f88460031b161c1916905538808062000ac0565b9293602060018192878601518155019501930162000aa8565b60036000529091507fc2575a0e9e593c00f959f8c92f12db2869c3395a3b0502d05e2516446f71f85b601f840160051c8101916020851062000b6c575b90601f859493920160051c01905b81811062000b5c575062000166565b6000815584935060010162000b4d565b909150819062000b3f565b91607f169162000150565b600080fd5b6040519190601f01601f191682016001600160401b038111838210176200057257604052565b919080601f8401121562000b825782516001600160401b038111620005725760209062000be3601f8201601f1916830162000b87565b9281845282828701011162000b825760005b81811062000c0b57508260009394955001015290565b858101830151848201840152820162000bf556fe6080604090808252600480361015610022575b505050361561002057600080fd5b005b600091823560e01c90816306fdde0314610e2d57508063095ea7b314610d8257806318160ddd14610d635780631d14384814610d3a57806323b872dd14610c44578063313ce56714610c285780633790cf5714610aa05780633ccfd60b1461094d5780634d8f59f01461092e57806370a08231146108f75780637b1b1de6146108d857806380007e83146108b45780638d6cc56d1461080f57806395d89b411461073b5780639a33e30014610691578063a0712d68146105ef578063a9059cbb146105be578063c2fc0d2614610514578063ca6f3d281461046a578063d8b0b49914610389578063dd62ed3e146103405763e87e922d03610012573461033c576020928360031936011261033857813567ffffffffffffffff9283821161033057366023830112156103305781013592831161033457602490368285830101116103305761017b60018060a01b036009541633146110c2565b610186600854610f4f565b601f81116102ce575b5084601f851160011461022057958483819382606097968a9b7fe8a9a39050d160223197676ce458111c545ecf768ee7a74b1308b3acc7cf6efa9b92610213575b50508360011b906000198560031b1c1916176008555b8551978689978852870152018585013782820184018790524290830152601f01601f19168101030190a180f35b83010135905082386101d0565b600886527ff3f7a9fe364faab93b216da50a3214154f22a0a2b415b23a84c8169e8b636ee390601f198616875b8181106102b557509386937fe8a9a39050d160223197676ce458111c545ecf768ee7a74b1308b3acc7cf6efa9899938593846060999810610299575b5050600183811b016008556101e6565b8201830135600019600386901b60f8161c191690553880610289565b919289600181928887890101358155019401920161024d565b600886527ff3f7a9fe364faab93b216da50a3214154f22a0a2b415b23a84c8169e8b636ee3601f860160051c810191888710610326575b601f0160051c01905b81811061031b575061018f565b86815560010161030e565b9091508190610305565b8480fd5b8380fd5b8280fd5b5080fd5b82843461033c578060031936011261033c578060209261035e610f1e565b610366610f39565b6001600160a01b0391821683526001865283832091168252845220549051908152f35b82843461033c578160031936011261033c57805190826007546103ab81610f4f565b8085529160019180831690811561044257506001146103e5575b5050506103d7826103e1940383610f89565b5191829182610ed5565b0390f35b9450600785527fa66cc928b5edb82af9bd49922954155ab7b0942694bea4ce44661d9a8736c6885b82861061042a575050506103d78260206103e195820101946103c5565b8054602087870181019190915290950194810161040d565b6103e19750869350602092506103d794915060ff191682840152151560051b820101946103c5565b82843461033c578160031936011261033c578051908260085461048c81610f4f565b8085529160019180831690811561044257506001146104b7575050506103d7826103e1940383610f89565b9450600885527ff3f7a9fe364faab93b216da50a3214154f22a0a2b415b23a84c8169e8b636ee35b8286106104fc575050506103d78260206103e195820101946103c5565b805460208787018101919091529095019481016104df565b82843461033c578160031936011261033c578051908260065461053681610f4f565b808552916001918083169081156104425750600114610561575050506103d7826103e1940383610f89565b9450600685527ff652222313e28459528d920b65115c16c04f3efc82aaedc97be59f3f377c0d3f5b8286106105a6575050506103d78260206103e195820101946103c5565b80546020878701810191909152909501948101610589565b82843461033c578060031936011261033c576020906105e86105de610f1e565b6024359033610fc1565b5160018152f35b508234610338576020366003190112610338576009546001600160a01b0316918035919061061e3385146110c2565b61062983151561111c565b831561067c57506020827fddf252ad1be2c89b69c2b068fc378daa952ba7f163c4a11628f55a4df523b3ef92610662879560025461109f565b60025585855284835280852082815401905551908152a380f35b84602492519163ec442f0560e01b8352820152fd5b82843461033c578160031936011261033c57805190826005546106b381610f4f565b8085529160019180831690811561044257506001146106de575050506103d7826103e1940383610f89565b9450600585527f036b6384b5eca791c62761152d0c79bb0604c104a5fb6f4eb0703f3154bb3db05b828610610723575050506103d78260206103e195820101946103c5565b80546020878701810191909152909501948101610706565b5082346103385782600319360112610338578051918381549061075d82610f4f565b808652926001928084169081156107e45750600114610788575b6103e186866103d7828b0383610f89565b815294507f8a35acfbc15ff81a39ae7d344fd709f28e8600b4aa8c65c6b64bfe7fe36bd19b5b8286106107cc575050506103d78260206103e1958201019486610777565b805460208787018101919091529095019481016107ae565b90506103e19750869350602092506103d794915060ff191682840152151560051b8201019486610777565b5082346103385760203660031901126103385781359161083a60018060a01b036009541633146110c2565b82156108725750816020917f66cbca4f3c64fecf1dcb9ce094abcf7f68c3450a1d4e3a8e917dd621edb4ebe093600a5551908152a180f35b6020606492519162461bcd60e51b8352820152601e60248201527f436172626f6e546f6b656e3a207072696365206d757374206265203e203000006044820152fd5b82843461033c578160031936011261033c5760209060ff600b541690519015158152f35b82843461033c578160031936011261033c57602090600a549051908152f35b82843461033c57602036600319011261033c5760209181906001600160a01b0361091f610f1e565b16815280845220549051908152f35b82843461033c578160031936011261033c57602090600c549051908152f35b5082346103385782600319360112610338576009546001600160a01b039061097890821633146110c2565b610980611168565b47908115610a5d57848080938193600954165af13d15610a58573d67ffffffffffffffff8111610a45578251906109c1601f8201601f191660200183610f89565b81528460203d92013e5b156109f8578260017f9b779b17422d0df92223018b32b4d1fa46e071723d6817e2486d003becc55f005580f35b906020608492519162461bcd60e51b8352820152602160248201527f436172626f6e546f6b656e3a2041564158207472616e73666572206661696c656044820152601960fa1b6064820152fd5b634e487b7160e01b855260418452602485fd5b6109cb565b825162461bcd60e51b8152602081860181905260248201527f436172626f6e546f6b656e3a206e6f204156415820746f2077697468647261776044820152606490fd5b50913461033c576020908160031936011261033857833591610ac0611168565b610acb83151561111c565b338452838152828285205410610bdc57610ae783600c5461109f565b600c553315610bc5573384528381528184205494838610610b9a5750827f5f42de6df61702eb8d413e46d7ba2e5b1b5607dc4feaf27c01d9907cff186d9b939495338752868352038286205583600254036002558482518581527fddf252ad1be2c89b69c2b068fc378daa952ba7f163c4a11628f55a4df523b3ef833392a3815193845242908401523392a260017f9b779b17422d0df92223018b32b4d1fa46e071723d6817e2486d003becc55f005580f35b825163391434e360e21b81523391810191825260208201879052604082018590529081906060010390fd5b8151634b637e8f60e11b8152808601859052602490fd5b8490608492519162461bcd60e51b8352820152602160248201527f436172626f6e546f6b656e3a20696e73756666696369656e742062616c616e636044820152606560f81b6064820152fd5b82843461033c578160031936011261033c576020905160128152f35b509034610d37576060366003190112610d3757610c5f610f1e565b610c67610f39565b916044359360018060a01b038316808352600160205286832033845260205286832054916000198310610ca3575b6020886105e8898989610fc1565b868310610d0b578115610cf4573315610cdd575082526001602090815286832033845281529186902090859003905582906105e838610c95565b8751634a1406b160e11b8152908101849052602490fd5b875163e602df0560e01b8152908101849052602490fd5b8751637dc7a0d960e11b8152339181019182526020820193909352604081018790528291506060010390fd5b80fd5b82843461033c578160031936011261033c5760095490516001600160a01b039091168152602090f35b82843461033c578160031936011261033c576020906002549051908152f35b50829034610338578160031936011261033857610d9d610f1e565b602435903315610e16576001600160a01b0316918215610dff57508083602095338152600187528181208582528752205582519081527f8c5be1e5ebec7d5bd14f71427d1e84f3dd0314c0f7b2291e5b200ac8c7c3b925843392a35160018152f35b8351634a1406b160e11b8152908101859052602490fd5b835163e602df0560e01b8152808401869052602490fd5b8390853461033857826003193601126103385782600354610e4d81610f4f565b808552916001918083169081156104425750600114610e78575050506103d7826103e1940383610f89565b9450600385527fc2575a0e9e593c00f959f8c92f12db2869c3395a3b0502d05e2516446f71f85b5b828610610ebd575050506103d78260206103e195820101946103c5565b80546020878701810191909152909501948101610ea0565b6020808252825181830181905290939260005b828110610f0a57505060409293506000838284010152601f8019910116010190565b818101860151848201604001528501610ee8565b600435906001600160a01b0382168203610f3457565b600080fd5b602435906001600160a01b0382168203610f3457565b90600182811c92168015610f7f575b6020831014610f6957565b634e487b7160e01b600052602260045260246000fd5b91607f1691610f5e565b90601f8019910116810190811067ffffffffffffffff821117610fab57604052565b634e487b7160e01b600052604160045260246000fd5b916001600160a01b03808416928315611086571692831561106d576000908382528160205260408220549083821061103b575091604082827fddf252ad1be2c89b69c2b068fc378daa952ba7f163c4a11628f55a4df523b3ef958760209652828652038282205586815220818154019055604051908152a3565b60405163391434e360e21b81526001600160a01b03919091166004820152602481019190915260448101839052606490fd5b60405163ec442f0560e01b815260006004820152602490fd5b604051634b637e8f60e11b815260006004820152602490fd5b919082018092116110ac57565b634e487b7160e01b600052601160045260246000fd5b156110c957565b60405162461bcd60e51b815260206004820152602560248201527f436172626f6e546f6b656e3a2063616c6c6572206973206e6f7420746865206960448201526439b9bab2b960d91b6064820152608490fd5b1561112357565b60405162461bcd60e51b815260206004820152601f60248201527f436172626f6e546f6b656e3a20616d6f756e74206d757374206265203e2030006044820152606490fd5b7f9b779b17422d0df92223018b32b4d1fa46e071723d6817e2486d003becc55f0060028154146111985760029055565b604051633ee5aeb560e01b8152600490fdfea2646970667358221220a6fb6857b6686d7b783755d2c6b3e73cf2b3ce1bb36660655a60e183ee823cdb64736f6c63430008140033a66cc928b5edb82af9bd49922954155ab7b0942694bea4ce44661d9a8736c688f3f7a9fe364faab93b216da50a3214154f22a0a2b415b23a84c8169e8b636ee3f652222313e28459528d920b65115c16c04f3efc82aaedc97be59f3f377c0d3fa26469706673582212204142e1d4faf7accde2e114c05d331ba42ba0609a46873b33e709e217e7a5457164736f6c63430008140033",
  "linkReferences": {},
  "deployedLinkReferences": {}
}